:02000000A22A32
:10054400BA01BB018301C42C0D3020230A302023BF
:1005540008007D08EB227C08EB220800A6224F301D
:1005640020234B3020230800FC00A6224530202302
:1005740052302023523020237C08EB220800C42A66
:10058400DC22C42A831203138C1EC92ACA2AC22A53
:10059400CB2A1A08CD2A08007108F301F307700862
:1005A400F201F207720884008317731C8313000896
:1005B400DB2A080083120313981CE12AE22AE42AA6
:1005C40018121816181DE72AE82AEA2A1A08EA2A2D
:1005D4000800FB007B08FA0004300310FA0CFF3E0D
:1005E400031DEF2A7A0868237B080F396823080063
:1005F4007108F501F5077008F401F4077208F300B7
:10060400740884008317751C831373088000080022
:10061400C122F9007908FA0020307A02031C132B56
:10062400142B1D2B7F307A020318192B1A2B1D2B28
:100634007A0820231D2B7A081F2B0800F800242B8E
:10064400DC22242B831203130C1E292B2A2B222B8E
:100654002B2B780899000130F0000030F1000D30A8
:10066400F7007708F200C4230800813083160313CF
:1006740099001815181283120313181218169817D4
:10068400831603130C128C121813831203131813FA
:100694008316031398129816080070088312031720
:1006A4008D0071088F0073088E0072088C00831609
:1006B40003178C170C1555308D00AA308D008C143F
:1006C40000000000831603170C110800F9000A301B
:1006D400790203186E2B6F2B732B7908303E20237D
:1006E400842B0A307902031C782B792B842B10304D
:1006F400790203187E2B7F2B842B7908373E202325
:10070400842B842B0800F1006400831603178C18D3
:100714008C2B8D2B862B8E2B7108831203178D0047
:100724003F30F0007008831603178C050C14031077
:100734000C180314003003180130831203170C083B
:10074400A32B08007008831203178D0071088F0013
:10075400831603170C118C170C140000000083126D
:1007640003170C08F200F3010E08F400F5017408F5
:10077400F500F40172087404F00073087504F100C4
:10078400C32B0800F401F501E52BF601D82B00007A
:100794000000000000000000000000000000000055
:1007A40000000130F3007308F607D82B72087602B4
:1007B400031CDD2BDE2BC92BDF2B0130F4070318C0
:1007C400F50A0030F50771087502031DEB2B70085C
:1007D4007402031CEE2BEF2BC72BF02B0800FC013B
:1007E400FA01FB01112C831203138C1EFA2BFB2B31
:1007F400002C1A08F9007908FC001C2CDC220130BA
:10080400F0000030F100FA30F9007908F200C42356
:100814000130FA070318FB0A0030FB07112C780893
:100824007B02031D172C77087A02031C1A2C1B2C3D
:10083400F52B1C2C7C081E2C0800F200212C83169E
:1008440003178C18262C272C212C282C7208831291
:1008540003178D0070088C003F30F1007108831677
:1008640003178C058312031303108B1F3A2C3B2CA4
:100874003C2C03148B13831603170C1555308D0071
:10088400AA308D008C140C1183120313031C4B2CFF
:100894004C2C4F2C8B174F2C4F2C0800F300720854
:1008A40083120313A000A1017108A200A301043064
:1008B400FF000310A20DA30DFF0B5B2C7008A40016
:1008C400A5012408A500A4017308A600A7010C3003
:1008D400FF000310A60DA70DFF0B6B2C24082604A4
:1008E400A80025082704A90022082804AA00230830
:1008F4002904AB0020082A04F00021082B04F1008D
:10090400832C0800F200FF30F0007008F100303052
:100914007202031C8E2C8F2C9B2C3A30720203180B
:10092400942C952C9B2C7208D03EF0007008F1009A
:10093400C12C61307202031CA02CA12CAD2C673099
:1009440072020318A62CA72CAD2C7208A93EF00045
:100954007008F100C12C41307202031CB22CB32C7C
:10096400C12C473072020318B82CB92CC12C720860
:10097400C93EF0007008F100C12CC12CC12C7108D3
:10098400C32C08000630831603139F008B01FF302D
:1009940087003723E830F7000330F800F12383128F
:1009A4000313B8003808B90039080D3A031DDB2CCD
:1009B400DC2C2D2DA622503020234430202342301D
:1009C40020234C3020237630202331302023A622CC
:1009D4003E30202383120313B901F02C39080D3A59
:1009E4000319F52CF62CFD2C0A2383120313B800EB
:1009F4003808B900FD2C39080D3A031D022D032DCA
:100A04000A2DA6223E30202383120313B9010A2D96
:100A140039083F3A031D0F2D102D182D2F250D30A9
:100A240083120313B8003808B900182D3908213A85
:100A3400031D1D2D1E2D262D14260D308312031388
:100A4400B8003808B900262D39082E3A031D2B2D7D
:100A54002C2DF02C2D2D0128002883120313B20114
:100A6400B301AF01B001B1010A238424831203133B
:100A7400AC002C08B400B41F402D412D442D00308F
:100A8400B622132E0A23842483120313AC002C08E9
:100A9400B500B51F4E2D4F2D522D0030B622132E0A
:100AA4000A2383120313AC002C08B70037080D3A4D
:100AB400031D5D2D5E2D7E2DF0013408AC002C0845
:100AC400F1003508AD002D08F20000305024710803
:100AD40083120313B301B3077008B201B2073208DB
:100AE400852383120313AC002C08B100A6228312C1
:100AF40003133108EB22132E8312031337088424C3
:100B040083120313AC002C08B700B71F8A2D8B2D5A
:100B14008E2D0030B622132E0A2383120313AC0049
:100B24002C08B60036080D3A031D992D9A2DC22DB6
:100B34003408AC002C08F0003508AD002D08F10095
:100B44003708AE002E08F2000030502471088312DA
:100B54000313B301B3077008B201B2073308F101FC
:100B6400F1073208F001F007CE2283120313AC0020
:100B74002C08B100A622831203133108EB22132E92
:100B8400831203133608842483120313AC002C0845
:100B9400B600B61FCE2DCF2DD22D0030B622132E87
:100BA400C1220D3A0319D72DD82DDB2D0330B622DF
:100BB400132E831203133508AC002C08F0003708F9
:100BC400AD002D08F1003608AE002E08F2003408FE
:100BD4005024710883120313B301B3077008B201E0
:100BE400B2073308F101F1073208F001F007A4233A
:100BF400710883120313B001B0077008AF01AF0787
:100C0400A622831203133008FD01FD072F08FC01FF
:100C1400FC07AB22132E132E132E132E132E132E7A
:100C2400132E080083120313B201B301B001B10102
:100C34000A23842483120313AC002C08B600B61FC5
:100C4400242E252E282E0130B622F92F0A2384249F
:100C540083120313AC002C08B700B71F322E332EB7
:100C6400362E0130B622F92F0A2383120313AC0067
:100C74002C08B50035083D3A031D412E422E9C2E0A
:100C8400F0013608AC002C08F1003708AD002D083F
:100C9400F20000305024710883120313B301B30728
:100CA4007008B201B2070A23842483120313AC0030
:100CB4002C08B600B61F5F2E602E632E0130B622BC
:100CC400F92F0A23842483120313AC002C08B700E1
:100CD400B71F6D2E6E2E712E0130B622F92FF00142
:100CE400831203133608AC002C08F1003708AD005A
:100CF4002D08F20000305024710883120313B1014F
:100D0400B1077008B001B007C1220D3A03198B2E48
:100D14008C2E8F2E0330B622F92F83120313300842
:100D2400AC002C08F00032081F24B022F92FF92F50
:100D3400F92FF92F83120313350884248312031324
:100D4400AC002C08B500B51FA82EA92EAC2E01307E
:100D5400B622F92F0A2383120313AC002C08B40023
:100D640034083D3A031DB72EB82E1A2F3608AC00AE
:100D74002C08F0003708AD002D08F1003508AE004E
:100D84002E08F20000305024710883120313B301BB
:100D9400B3077008B201B2070A2384248312031331
:100DA400AC002C08B600B61FD82ED92EDC2E01308C
:100DB400B622F92F0A23842483120313AC002C08CF
:100DC400B700B71FE62EE72EEA2E0130B622F92F20
:100DD400F001831203133608AC002C08F100370825
:100DE400AD002D08F2000030502471088312031363
:100DF400B101B1077008B001B007C1220D3A03195F
:100E0400042F052F082F0330B622F92F8312031362
:100E14003308F101F1073208F001F0073008AC00A3
:100E24002C08F200FA22B022F92FF92FF92FF92F0A
:100E3400831203133408842483120313AC002C0894
:100E4400B400B41F262F272F2A2F0130B622F92FE2
:100E54000A2383120313AC002C08AF002F083D3A79
:100E64000319352F362F392F0230B622F92F83126A
:100E740003133708AC002C08F0003508AD002D082A
:100E8400F1003408AE002E08F20036085024710830
:100E940083120313B301B3077008B201B2070A2324
:100EA400842483120313AC002C08B600B61F5B2FF6
:100EB4005C2F5F2F0130B622F92F0A23842483127A
:100EC4000313AC002C08B700B71F692F6A2F6D2FCE
:100ED4000130B622F92F0A23842483120313AC00B1
:100EE4002C08B500B51F772F782F7B2F0130B62241
:100EF400F92F0A23842483120313AC002C08B400B2
:100F0400B41F852F862F892F0130B622F92F831223
:100F140003133708AC002C08F0003508AD002D0889
:100F2400F1003408AE002E08F2003608502471088F
:100F340083120313B101B1077008B001B007C122D5
:100F44000D3A0319A62FA72FAA2F0330B622F92F83
:100F5400831203133B083A04031DB12FB22FC42F8D
:100F64000030F0000030F100A42371088312031351
:100F7400BB01BB077008BA01BA07FF30BA050730D6
:100F8400BB05C42F3B083302031DCA2F3A083202A3
:100F9400031CCD2FCE2FD22F0430B622F92FF92FD8
:100FA4008312031333083204031DD92FDA2FDF2FE2
:100FB4000130B2000030B300DF2F3308F101F10734
:100FC4003208F001F0073108F301F3073008F201A9
:100FD400F2074F23B022F92FF92FF92FF92FF92F08
:100FE400F92FF92FF92FF92FF92FF92FF92F0800DD
:0E0FF4005034443442344C34763431340034BA
:02400E007AFF37
:00000001FF
