:020000040000FA
:020000000528D1
:08000800090083160313063002
:100010009F0083160313FF30850000308600F03008
:100020008700831203130030850000308600003003
:100030008700831603138B018113011783120313A7
:1000400064005028BC010709FF3086000709000042
:100050003C0886000508C0000508C1000508C2006C
:100060000508C3000508C4003D0868233C08EB22CE
:100070003A3020234008EB222C3020234108EB2289
:100080002C3020234208EB222C3020234308EB2283
:100090002C3020234408EB22A622BC0F2328080082
:1000A000A62248302023453020234C3020234C30DA
:1000B00020234F302023A6220030BD0000308700CF
:1000C00022200130BD000830870022200230BD0010
:1000D0000130870022200330BD0009308700222034
:1000E0000430BD000230870022200530BD000A30F8
:1000F000870022200630BD00033087002220073011
:10010000BD000B30870022200830BD00043087007E
:1001100022200930BD000C30870022200A30BD00AB
:100120000530870022200B30BD000D3087002220D3
:100130000C30BD000630870022200D30BD000E308F
:10014000870022200E30BD000730870022200F30AC
:0A015000BD000F3087002220AC280C
:02400E00723D01
:00000001FF
